{
  "_format": "hh-sol-artifact-1",
  "contractName": "NFTMarketPlace",
  "sourceName": "contracts/NFTMarketPlace.sol",
  "abi": [
    {
      "inputs": [],
      "stateMutability": "nonpayable",
      "type": "constructor"
    },
    {
      "anonymous": false,
      "inputs": [
        {
          "indexed": true,
          "internalType": "address",
          "name": "owner",
          "type": "address"
        },
        {
          "indexed": true,
          "internalType": "address",
          "name": "approved",
          "type": "address"
        },
        {
          "indexed": true,
          "internalType": "uint256",
          "name": "tokenId",
          "type": "uint256"
        }
      ],
      "name": "Approval",
      "type": "event"
    },
    {
      "anonymous": false,
      "inputs": [
        {
          "indexed": true,
          "internalType": "address",
          "name": "owner",
          "type": "address"
        },
        {
          "indexed": true,
          "internalType": "address",
          "name": "operator",
          "type": "address"
        },
        {
          "indexed": false,
          "internalType": "bool",
          "name": "approved",
          "type": "bool"
        }
      ],
      "name": "ApprovalForAll",
      "type": "event"
    },
    {
      "anonymous": false,
      "inputs": [
        {
          "indexed": true,
          "internalType": "address",
          "name": "from",
          "type": "address"
        },
        {
          "indexed": true,
          "internalType": "address",
          "name": "to",
          "type": "address"
        },
        {
          "indexed": true,
          "internalType": "uint256",
          "name": "tokenId",
          "type": "uint256"
        }
      ],
      "name": "Transfer",
      "type": "event"
    },
    {
      "anonymous": false,
      "inputs": [
        {
          "indexed": true,
          "internalType": "uint256",
          "name": "tokenId",
          "type": "uint256"
        },
        {
          "indexed": false,
          "internalType": "address payable",
          "name": "seller",
          "type": "address"
        },
        {
          "indexed": false,
          "internalType": "address payable",
          "name": "owner",
          "type": "address"
        },
        {
          "indexed": false,
          "internalType": "uint256",
          "name": "price",
          "type": "uint256"
        },
        {
          "indexed": false,
          "internalType": "bool",
          "name": "sold",
          "type": "bool"
        }
      ],
      "name": "idMarketItemCreated",
      "type": "event"
    },
    {
      "inputs": [
        {
          "internalType": "address",
          "name": "to",
          "type": "address"
        },
        {
          "internalType": "uint256",
          "name": "tokenId",
          "type": "uint256"
        }
      ],
      "name": "approve",
      "outputs": [],
      "stateMutability": "nonpayable",
      "type": "function"
    },
    {
      "inputs": [
        {
          "internalType": "address",
          "name": "owner",
          "type": "address"
        }
      ],
      "name": "balanceOf",
      "outputs": [
        {
          "internalType": "uint256",
          "name": "",
          "type": "uint256"
        }
      ],
      "stateMutability": "view",
      "type": "function"
    },
    {
      "inputs": [
        {
          "internalType": "uint256",
          "name": "tokenId",
          "type": "uint256"
        }
      ],
      "name": "createMarketSale",
      "outputs": [],
      "stateMutability": "payable",
      "type": "function"
    },
    {
      "inputs": [
        {
          "internalType": "string",
          "name": "tokenURI",
          "type": "string"
        },
        {
          "internalType": "uint256",
          "name": "price",
          "type": "uint256"
        }
      ],
      "name": "createToken",
      "outputs": [
        {
          "internalType": "uint256",
          "name": "",
          "type": "uint256"
        }
      ],
      "stateMutability": "payable",
      "type": "function"
    },
    {
      "inputs": [],
      "name": "fetchItemListed",
      "outputs": [
        {
          "components": [
            {
              "internalType": "uint256",
              "name": "tokenId",
              "type": "uint256"
            },
            {
              "internalType": "address payable",
              "name": "seller",
              "type": "address"
            },
            {
              "internalType": "address payable",
              "name": "owner",
              "type": "address"
            },
            {
              "internalType": "uint256",
              "name": "price",
              "type": "uint256"
            },
            {
              "internalType": "bool",
              "name": "sold",
              "type": "bool"
            }
          ],
          "internalType": "struct NFTMarketPlace.MarketItem[]",
          "name": "",
          "type": "tuple[]"
        }
      ],
      "stateMutability": "view",
      "type": "function"
    },
    {
      "inputs": [],
      "name": "fetchMarketItems",
      "outputs": [
        {
          "components": [
            {
              "internalType": "uint256",
              "name": "tokenId",
              "type": "uint256"
            },
            {
              "internalType": "address payable",
              "name": "seller",
              "type": "address"
            },
            {
              "internalType": "address payable",
              "name": "owner",
              "type": "address"
            },
            {
              "internalType": "uint256",
              "name": "price",
              "type": "uint256"
            },
            {
              "internalType": "bool",
              "name": "sold",
              "type": "bool"
            }
          ],
          "internalType": "struct NFTMarketPlace.MarketItem[]",
          "name": "",
          "type": "tuple[]"
        }
      ],
      "stateMutability": "view",
      "type": "function"
    },
    {
      "inputs": [],
      "name": "fetchMyNFT",
      "outputs": [
        {
          "components": [
            {
              "internalType": "uint256",
              "name": "tokenId",
              "type": "uint256"
            },
            {
              "internalType": "address payable",
              "name": "seller",
              "type": "address"
            },
            {
              "internalType": "address payable",
              "name": "owner",
              "type": "address"
            },
            {
              "internalType": "uint256",
              "name": "price",
              "type": "uint256"
            },
            {
              "internalType": "bool",
              "name": "sold",
              "type": "bool"
            }
          ],
          "internalType": "struct NFTMarketPlace.MarketItem[]",
          "name": "",
          "type": "tuple[]"
        }
      ],
      "stateMutability": "view",
      "type": "function"
    },
    {
      "inputs": [
        {
          "internalType": "uint256",
          "name": "tokenId",
          "type": "uint256"
        }
      ],
      "name": "getApproved",
      "outputs": [
        {
          "internalType": "address",
          "name": "",
          "type": "address"
        }
      ],
      "stateMutability": "view",
      "type": "function"
    },
    {
      "inputs": [],
      "name": "getListingPrice",
      "outputs": [
        {
          "internalType": "uint256",
          "name": "",
          "type": "uint256"
        }
      ],
      "stateMutability": "view",
      "type": "function"
    },
    {
      "inputs": [
        {
          "internalType": "address",
          "name": "owner",
          "type": "address"
        },
        {
          "internalType": "address",
          "name": "operator",
          "type": "address"
        }
      ],
      "name": "isApprovedForAll",
      "outputs": [
        {
          "internalType": "bool",
          "name": "",
          "type": "bool"
        }
      ],
      "stateMutability": "view",
      "type": "function"
    },
    {
      "inputs": [],
      "name": "name",
      "outputs": [
        {
          "internalType": "string",
          "name": "",
          "type": "string"
        }
      ],
      "stateMutability": "view",
      "type": "function"
    },
    {
      "inputs": [
        {
          "internalType": "uint256",
          "name": "tokenId",
          "type": "uint256"
        }
      ],
      "name": "ownerOf",
      "outputs": [
        {
          "internalType": "address",
          "name": "",
          "type": "address"
        }
      ],
      "stateMutability": "view",
      "type": "function"
    },
    {
      "inputs": [
        {
          "internalType": "uint256",
          "name": "tokenId",
          "type": "uint256"
        },
        {
          "internalType": "uint256",
          "name": "price",
          "type": "uint256"
        }
      ],
      "name": "reSellToken",
      "outputs": [],
      "stateMutability": "payable",
      "type": "function"
    },
    {
      "inputs": [
        {
          "internalType": "address",
          "name": "from",
          "type": "address"
        },
        {
          "internalType": "address",
          "name": "to",
          "type": "address"
        },
        {
          "internalType": "uint256",
          "name": "tokenId",
          "type": "uint256"
        }
      ],
      "name": "safeTransferFrom",
      "outputs": [],
      "stateMutability": "nonpayable",
      "type": "function"
    },
    {
      "inputs": [
        {
          "internalType": "address",
          "name": "from",
          "type": "address"
        },
        {
          "internalType": "address",
          "name": "to",
          "type": "address"
        },
        {
          "internalType": "uint256",
          "name": "tokenId",
          "type": "uint256"
        },
        {
          "internalType": "bytes",
          "name": "data",
          "type": "bytes"
        }
      ],
      "name": "safeTransferFrom",
      "outputs": [],
      "stateMutability": "nonpayable",
      "type": "function"
    },
    {
      "inputs": [
        {
          "internalType": "address",
          "name": "operator",
          "type": "address"
        },
        {
          "internalType": "bool",
          "name": "approved",
          "type": "bool"
        }
      ],
      "name": "setApprovalForAll",
      "outputs": [],
      "stateMutability": "nonpayable",
      "type": "function"
    },
    {
      "inputs": [
        {
          "internalType": "bytes4",
          "name": "interfaceId",
          "type": "bytes4"
        }
      ],
      "name": "supportsInterface",
      "outputs": [
        {
          "internalType": "bool",
          "name": "",
          "type": "bool"
        }
      ],
      "stateMutability": "view",
      "type": "function"
    },
    {
      "inputs": [],
      "name": "symbol",
      "outputs": [
        {
          "internalType": "string",
          "name": "",
          "type": "string"
        }
      ],
      "stateMutability": "view",
      "type": "function"
    },
    {
      "inputs": [
        {
          "internalType": "uint256",
          "name": "tokenId",
          "type": "uint256"
        }
      ],
      "name": "tokenURI",
      "outputs": [
        {
          "internalType": "string",
          "name": "",
          "type": "string"
        }
      ],
      "stateMutability": "view",
      "type": "function"
    },
    {
      "inputs": [
        {
          "internalType": "address",
          "name": "from",
          "type": "address"
        },
        {
          "internalType": "address",
          "name": "to",
          "type": "address"
        },
        {
          "internalType": "uint256",
          "name": "tokenId",
          "type": "uint256"
        }
      ],
      "name": "transferFrom",
      "outputs": [],
      "stateMutability": "nonpayable",
      "type": "function"
    },
    {
      "inputs": [
        {
          "internalType": "uint256",
          "name": "_listingPrice",
          "type": "uint256"
        }
      ],
      "name": "updateListingPrice",
      "outputs": [],
      "stateMutability": "payable",
      "type": "function"
    }
  ],
  "bytecode": "0x60806040526605543df729c0006009553480156200001c57600080fd5b506040518060400160405280601381526020017f4e4654204d657461766172736520546f6b656e000000000000000000000000008152506040518060400160405280600581526020017f4d594e465400000000000000000000000000000000000000000000000000000081525081600090816200009a919062000370565b508060019081620000ac919062000370565b50505033600a60006101000a81548173ffffffffffffffffffffffffffffffffffffffff021916908373ffffffffffffffffffffffffffffffffffffffff16021790555062000457565b600081519050919050565b7f4e487b7100000000000000000000000000000000000000000000000000000000600052604160045260246000fd5b7f4e487b7100000000000000000000000000000000000000000000000000000000600052602260045260246000fd5b600060028204905060018216806200017857607f821691505b6020821081036200018e576200018d62000130565b5b50919050565b60008190508160005260206000209050919050565b60006020601f8301049050919050565b600082821b905092915050565b600060088302620001f87fffffffffffffffffffffffffffffffffffffffffffffffffffffffffffffffff82620001b9565b620002048683620001b9565b95508019841693508086168417925050509392505050565b6000819050919050565b6000819050919050565b6000620002516200024b62000245846200021c565b62000226565b6200021c565b9050919050565b6000819050919050565b6200026d8362000230565b620002856200027c8262000258565b848454620001c6565b825550505050565b600090565b6200029c6200028d565b620002a981848462000262565b505050565b5b81811015620002d157620002c560008262000292565b600181019050620002af565b5050565b601f8211156200032057620002ea8162000194565b620002f584620001a9565b8101602085101562000305578190505b6200031d6200031485620001a9565b830182620002ae565b50505b505050565b600082821c905092915050565b6000620003456000198460080262000325565b1980831691505092915050565b600062000360838362000332565b9150826002028217905092915050565b6200037b82620000f6565b67ffffffffffffffff81111562000397576200039662000101565b5b620003a382546200015f565b620003b0828285620002d5565b600060209050601f831160018114620003e85760008415620003d3578287015190505b620003df858262000352565b8655506200044f565b601f198416620003f88662000194565b60005b828110156200042257848901518255600182019150602085019450602081019050620003fb565b868310156200044257848901516200043e601f89168262000332565b8355505b6001600288020188555050505b505050505050565b61410280620004676000396000f3fe60806040526004361061012a5760003560e01c806372b3b620116100ab578063b88d4fde1161006f578063b88d4fde146103db578063be9af53614610404578063c18763f714610420578063c87b56dd1461044b578063e179144514610488578063e985e9c5146104b35761012a565b806372b3b6201461031f57806385535b251461034f57806395d89b411461036b578063a22cb46514610396578063ae677aa3146103bf5761012a565b806312e85585116100f257806312e855851461022857806323b872dd1461025357806342842e0e1461027c5780636352211e146102a557806370a08231146102e25761012a565b806301ffc9a71461012f57806306fdde031461016c578063081812fc14610197578063095ea7b3146101d45780630f08efe0146101fd575b600080fd5b34801561013b57600080fd5b5061015660048036038101906101519190612955565b6104f0565b604051610163919061299d565b60405180910390f35b34801561017857600080fd5b506101816105d2565b60405161018e9190612a48565b60405180910390f35b3480156101a357600080fd5b506101be60048036038101906101b99190612aa0565b610664565b6040516101cb9190612b0e565b60405180910390f35b3480156101e057600080fd5b506101fb60048036038101906101f69190612b55565b6106aa565b005b34801561020957600080fd5b506102126107c1565b60405161021f9190612ceb565b60405180910390f35b34801561023457600080fd5b5061023d610a23565b60405161024a9190612d1c565b60405180910390f35b34801561025f57600080fd5b5061027a60048036038101906102759190612d37565b610a2d565b005b34801561028857600080fd5b506102a3600480360381019061029e9190612d37565b610a8d565b005b3480156102b157600080fd5b506102cc60048036038101906102c79190612aa0565b610aad565b6040516102d99190612b0e565b60405180910390f35b3480156102ee57600080fd5b5061030960048036038101906103049190612d8a565b610b5e565b6040516103169190612d1c565b60405180910390f35b61033960048036038101906103349190612eec565b610c15565b6040516103469190612d1c565b60405180910390f35b61036960048036038101906103649190612f48565b610c57565b005b34801561037757600080fd5b50610380610e4c565b60405161038d9190612a48565b60405180910390f35b3480156103a257600080fd5b506103bd60048036038101906103b89190612fb4565b610ede565b005b6103d960048036038101906103d49190612aa0565b610ef4565b005b3480156103e757600080fd5b5061040260048036038101906103fd9190613095565b610f8e565b005b61041e60048036038101906104199190612aa0565b610ff0565b005b34801561042c57600080fd5b50610435611228565b6040516104429190612ceb565b60405180910390f35b34801561045757600080fd5b50610472600480360381019061046d9190612aa0565b611506565b60405161047f9190612a48565b60405180910390f35b34801561049457600080fd5b5061049d611618565b6040516104aa9190612ceb565b60405180910390f35b3480156104bf57600080fd5b506104da60048036038101906104d59190613118565b6118f7565b6040516104e7919061299d565b60405180910390f35b60007f80ac58cd000000000000000000000000000000000000000000000000000000007bffffffffffffffffffffffffffffffffffffffffffffffffffffffff1916827bffffffffffffffffffffffffffffffffffffffffffffffffffffffff191614806105bb57507f5b5e139f000000000000000000000000000000000000000000000000000000007bffffffffffffffffffffffffffffffffffffffffffffffffffffffff1916827bffffffffffffffffffffffffffffffffffffffffffffffffffffffff1916145b806105cb57506105ca8261198b565b5b9050919050565b6060600080546105e190613187565b80601f016020809104026020016040519081016040528092919081815260200182805461060d90613187565b801561065a5780601f1061062f5761010080835404028352916020019161065a565b820191906000526020600020905b81548152906001019060200180831161063d57829003601f168201915b5050505050905090565b600061066f826119f5565b6004600083815260200190815260200160002060009054906101000a900473ffffffffffffffffffffffffffffffffffffffff169050919050565b60006106b582610aad565b90508073ffffffffffffffffffffffffffffffffffffffff168373ffffffffffffffffffffffffffffffffffffffff1603610725576040517f08c379a000000000000000000000000000000000000000000000000000000000815260040161071c9061322a565b60405180910390fd5b8073ffffffffffffffffffffffffffffffffffffffff16610744611a40565b73ffffffffffffffffffffffffffffffffffffffff16148061077357506107728161076d611a40565b6118f7565b5b6107b2576040517f08c379a00000000000000000000000000000000000000000000000000000000081526004016107a9906132bc565b60405180910390fd5b6107bc8383611a48565b505050565b606060006107cf6007611b01565b905060006107dd6008611b01565b6107e76007611b01565b6107f1919061330b565b90506000808267ffffffffffffffff8111156108105761080f612dc1565b5b60405190808252806020026020018201604052801561084957816020015b61083661288c565b81526020019060019003908161082e5790505b50905060005b84811015610a1857600073ffffffffffffffffffffffffffffffffffffffff16600b6000600184610880919061333f565b815260200190815260200160002060020160009054906101000a900473ffffffffffffffffffffffffffffffffffffffff1673ffffffffffffffffffffffffffffffffffffffff1603610a0b5760006001826108dc919061333f565b90506000600b60008381526020019081526020016000206040518060a0016040529081600082015481526020016001820160009054906101000a900473ffffffffffffffffffffffffffffffffffffffff1673ffffffffffffffffffffffffffffffffffffffff1673ffffffffffffffffffffffffffffffffffffffff1681526020016002820160009054906101000a900473ffffffffffffffffffffffffffffffffffffffff1673ffffffffffffffffffffffffffffffffffffffff1673ffffffffffffffffffffffffffffffffffffffff168152602001600382015481526020016004820160009054906101000a900460ff1615151515815250509050808486815181106109ef576109ee613373565b5b60200260200101819052508480610a05906133a2565b95505050505b808060010191505061084f565b508094505050505090565b6000600954905090565b610a3e610a38611a40565b82611b0f565b610a7d576040517f08c379a0000000000000000000000000000000000000000000000000000000008152600401610a749061345c565b60405180910390fd5b610a88838383611ba4565b505050565b610aa883838360405180602001604052806000815250610f8e565b505050565b6000806002600084815260200190815260200160002060009054906101000a900473ffffffffffffffffffffffffffffffffffffffff169050600073ffffffffffffffffffffffffffffffffffffffff168173ffffffffffffffffffffffffffffffffffffffff1603610b55576040517f08c379a0000000000000000000000000000000000000000000000000000000008152600401610b4c906134c8565b60405180910390fd5b80915050919050565b60008073ffffffffffffffffffffffffffffffffffffffff168273ffffffffffffffffffffffffffffffffffffffff1603610bce576040517f08c379a0000000000000000000000000000000000000000000000000000000008152600401610bc59061355a565b60405180910390fd5b600360008373ffffffffffffffffffffffffffffffffffffffff1673ffffffffffffffffffffffffffffffffffffffff168152602001908152602001600020549050919050565b6000610c216007611e0a565b6000610c2d6007611b01565b9050610c393382611e20565b610c438185611ff9565b610c4d8184612066565b8091505092915050565b3373ffffffffffffffffffffffffffffffffffffffff16600b600084815260200190815260200160002060020160009054906101000a900473ffffffffffffffffffffffffffffffffffffffff1673ffffffffffffffffffffffffffffffffffffffff1614610cfb576040517f08c379a0000000000000000000000000000000000000000000000000000000008152600401610cf2906135ec565b60405180910390fd5b6009543414610d3f576040517f08c379a0000000000000000000000000000000000000000000000000000000008152600401610d369061367e565b60405180910390fd5b80600b6000848152602001908152602001600020600301819055506000600b600084815260200190815260200160002060040160006101000a81548160ff02191690831515021790555033600b600084815260200190815260200160002060010160006101000a81548173ffffffffffffffffffffffffffffffffffffffff021916908373ffffffffffffffffffffffffffffffffffffffff16021790555030600b600084815260200190815260200160002060020160006101000a81548173ffffffffffffffffffffffffffffffffffffffff021916908373ffffffffffffffffffffffffffffffffffffffff160217905550610e3d6008612269565b610e48333084611ba4565b5050565b606060018054610e5b90613187565b80601f0160208091040260200160405190810160405280929190818152602001828054610e8790613187565b8015610ed45780601f10610ea957610100808354040283529160200191610ed4565b820191906000526020600020905b815481529060010190602001808311610eb757829003601f168201915b5050505050905090565b610ef0610ee9611a40565b83836122c5565b5050565b600a60009054906101000a900473ffffffffffffffffffffffffffffffffffffffff1673ffffffffffffffffffffffffffffffffffffffff163373ffffffffffffffffffffffffffffffffffffffff1614610f84576040517f08c379a0000000000000000000000000000000000000000000000000000000008152600401610f7b90613710565b60405180910390fd5b8060098190555050565b610f9f610f99611a40565b83611b0f565b610fde576040517f08c379a0000000000000000000000000000000000000000000000000000000008152600401610fd59061345c565b60405180910390fd5b610fea84848484612431565b50505050565b6000600b600083815260200190815260200160002060030154905080341461104d576040517f08c379a0000000000000000000000000000000000000000000000000000000008152600401611044906137a2565b60405180910390fd5b6001600b600084815260200190815260200160002060040160006101000a81548160ff02191690831515021790555033600b600084815260200190815260200160002060020160006101000a81548173ffffffffffffffffffffffffffffffffffffffff021916908373ffffffffffffffffffffffffffffffffffffffff1602179055506000600b600084815260200190815260200160002060020160006101000a81548173ffffffffffffffffffffffffffffffffffffffff021916908373ffffffffffffffffffffffffffffffffffffffff1602179055506111316008611e0a565b61113c303384611ba4565b600a60009054906101000a900473ffffffffffffffffffffffffffffffffffffffff1673ffffffffffffffffffffffffffffffffffffffff166108fc6009549081150290604051600060405180830381858888f193505050501580156111a6573d6000803e3d6000fd5b50600b600083815260200190815260200160002060010160009054906101000a900473ffffffffffffffffffffffffffffffffffffffff1673ffffffffffffffffffffffffffffffffffffffff166108fc349081150290604051600060405180830381858888f19350505050158015611223573d6000803e3d6000fd5b505050565b606060006112366007611b01565b905060008060005b838110156112d7573373ffffffffffffffffffffffffffffffffffffffff16600b600060018461126e919061333f565b815260200190815260200160002060020160009054906101000a900473ffffffffffffffffffffffffffffffffffffffff1673ffffffffffffffffffffffffffffffffffffffff16036112ca5782806112c6906133a2565b9350505b808060010191505061123e565b5060008267ffffffffffffffff8111156112f4576112f3612dc1565b5b60405190808252806020026020018201604052801561132d57816020015b61131a61288c565b8152602001906001900390816113125790505b50905060005b848110156114fb573373ffffffffffffffffffffffffffffffffffffffff16600b6000600184611363919061333f565b815260200190815260200160002060020160009054906101000a900473ffffffffffffffffffffffffffffffffffffffff1673ffffffffffffffffffffffffffffffffffffffff16036114ee5760006001826113bf919061333f565b90506000600b60008381526020019081526020016000206040518060a0016040529081600082015481526020016001820160009054906101000a900473ffffffffffffffffffffffffffffffffffffffff1673ffffffffffffffffffffffffffffffffffffffff1673ffffffffffffffffffffffffffffffffffffffff1681526020016002820160009054906101000a900473ffffffffffffffffffffffffffffffffffffffff1673ffffffffffffffffffffffffffffffffffffffff1673ffffffffffffffffffffffffffffffffffffffff168152602001600382015481526020016004820160009054906101000a900460ff1615151515815250509050808486815181106114d2576114d1613373565b5b602002602001018190525084806114e8906133a2565b95505050505b8080600101915050611333565b508094505050505090565b6060611511826119f5565b600060066000848152602001908152602001600020805461153190613187565b80601f016020809104026020016040519081016040528092919081815260200182805461155d90613187565b80156115aa5780601f1061157f576101008083540402835291602001916115aa565b820191906000526020600020905b81548152906001019060200180831161158d57829003601f168201915b5050505050905060006115bb61248d565b905060008151036115d0578192505050611613565b6000825111156116055780826040516020016115ed9291906137fe565b60405160208183030381529060405292505050611613565b61160e846124a4565b925050505b919050565b606060006116266007611b01565b905060008060005b838110156116c7573373ffffffffffffffffffffffffffffffffffffffff16600b600060018461165e919061333f565b815260200190815260200160002060010160009054906101000a900473ffffffffffffffffffffffffffffffffffffffff1673ffffffffffffffffffffffffffffffffffffffff16036116ba5781806116b6906133a2565b9250505b808060010191505061162e565b5060008167ffffffffffffffff8111156116e4576116e3612dc1565b5b60405190808252806020026020018201604052801561171d57816020015b61170a61288c565b8152602001906001900390816117025790505b50905060005b828110156118ec573373ffffffffffffffffffffffffffffffffffffffff16600b6000600184611753919061333f565b815260200190815260200160002060010160009054906101000a900473ffffffffffffffffffffffffffffffffffffffff1673ffffffffffffffffffffffffffffffffffffffff16036118df5760006001826117af919061333f565b90506000600b60008381526020019081526020016000206040518060a0016040529081600082015481526020016001820160009054906101000a900473ffffffffffffffffffffffffffffffffffffffff1673ffffffffffffffffffffffffffffffffffffffff1673ffffffffffffffffffffffffffffffffffffffff1681526020016002820160009054906101000a900473ffffffffffffffffffffffffffffffffffffffff1673ffffffffffffffffffffffffffffffffffffffff1673ffffffffffffffffffffffffffffffffffffffff168152602001600382015481526020016004820160009054906101000a900460ff1615151515815250509050808487815181106118c2576118c1613373565b5b60200260200101819052506001866118da919061333f565b955050505b8080600101915050611723565b508094505050505090565b6000600560008473ffffffffffffffffffffffffffffffffffffffff1673ffffffffffffffffffffffffffffffffffffffff16815260200190815260200160002060008373ffffffffffffffffffffffffffffffffffffffff1673ffffffffffffffffffffffffffffffffffffffff16815260200190815260200160002060009054906101000a900460ff16905092915050565b60007f01ffc9a7000000000000000000000000000000000000000000000000000000007bffffffffffffffffffffffffffffffffffffffffffffffffffffffff1916827bffffffffffffffffffffffffffffffffffffffffffffffffffffffff1916149050919050565b6119fe8161250c565b611a3d576040517f08c379a0000000000000000000000000000000000000000000000000000000008152600401611a34906134c8565b60405180910390fd5b50565b600033905090565b816004600083815260200190815260200160002060006101000a81548173ffffffffffffffffffffffffffffffffffffffff021916908373ffffffffffffffffffffffffffffffffffffffff160217905550808273ffffffffffffffffffffffffffffffffffffffff16611abb83610aad565b73ffffffffffffffffffffffffffffffffffffffff167f8c5be1e5ebec7d5bd14f71427d1e84f3dd0314c0f7b2291e5b200ac8c7c3b92560405160405180910390a45050565b600081600001549050919050565b600080611b1b83610aad565b90508073ffffffffffffffffffffffffffffffffffffffff168473ffffffffffffffffffffffffffffffffffffffff161480611b5d5750611b5c81856118f7565b5b80611b9b57508373ffffffffffffffffffffffffffffffffffffffff16611b8384610664565b73ffffffffffffffffffffffffffffffffffffffff16145b91505092915050565b8273ffffffffffffffffffffffffffffffffffffffff16611bc482610aad565b73ffffffffffffffffffffffffffffffffffffffff1614611c1a576040517f08c379a0000000000000000000000000000000000000000000000000000000008152600401611c1190613894565b60405180910390fd5b600073ffffffffffffffffffffffffffffffffffffffff168273ffffffffffffffffffffffffffffffffffffffff1603611c89576040517f08c379a0000000000000000000000000000000000000000000000000000000008152600401611c8090613926565b60405180910390fd5b611c94838383612578565b611c9f600082611a48565b6001600360008573ffffffffffffffffffffffffffffffffffffffff1673ffffffffffffffffffffffffffffffffffffffff1681526020019081526020016000206000828254611cef919061330b565b925050819055506001600360008473ffffffffffffffffffffffffffffffffffffffff1673ffffffffffffffffffffffffffffffffffffffff1681526020019081526020016000206000828254611d46919061333f565b92505081905550816002600083815260200190815260200160002060006101000a81548173ffffffffffffffffffffffffffffffffffffffff021916908373ffffffffffffffffffffffffffffffffffffffff160217905550808273ffffffffffffffffffffffffffffffffffffffff168473ffffffffffffffffffffffffffffffffffffffff167fddf252ad1be2c89b69c2b068fc378daa952ba7f163c4a11628f55a4df523b3ef60405160405180910390a4611e0583838361257d565b505050565b6001816000016000828254019250508190555050565b600073ffffffffffffffffffffffffffffffffffffffff168273ffffffffffffffffffffffffffffffffffffffff1603611e8f576040517f08c379a0000000000000000000000000000000000000000000000000000000008152600401611e8690613992565b60405180910390fd5b611e988161250c565b15611ed8576040517f08c379a0000000000000000000000000000000000000000000000000000000008152600401611ecf906139fe565b60405180910390fd5b611ee460008383612578565b6001600360008473ffffffffffffffffffffffffffffffffffffffff1673ffffffffffffffffffffffffffffffffffffffff1681526020019081526020016000206000828254611f34919061333f565b92505081905550816002600083815260200190815260200160002060006101000a81548173ffffffffffffffffffffffffffffffffffffffff021916908373ffffffffffffffffffffffffffffffffffffffff160217905550808273ffffffffffffffffffffffffffffffffffffffff16600073ffffffffffffffffffffffffffffffffffffffff167fddf252ad1be2c89b69c2b068fc378daa952ba7f163c4a11628f55a4df523b3ef60405160405180910390a4611ff56000838361257d565b5050565b6120028261250c565b612041576040517f08c379a000000000000000000000000000000000000000000000000000000000815260040161203890613a90565b60405180910390fd5b806006600084815260200190815260200160002090816120619190613c5c565b505050565b600081116120a9576040517f08c379a00000000000000000000000000000000000000000000000000000000081526004016120a090613d7a565b60405180910390fd5b60095434146120ed576040517f08c379a00000000000000000000000000000000000000000000000000000000081526004016120e49061367e565b60405180910390fd5b6040518060a001604052808381526020013373ffffffffffffffffffffffffffffffffffffffff1681526020013073ffffffffffffffffffffffffffffffffffffffff16815260200182815260200160001515815250600b60008481526020019081526020016000206000820151816000015560208201518160010160006101000a81548173ffffffffffffffffffffffffffffffffffffffff021916908373ffffffffffffffffffffffffffffffffffffffff16021790555060408201518160020160006101000a81548173ffffffffffffffffffffffffffffffffffffffff021916908373ffffffffffffffffffffffffffffffffffffffff1602179055506060820151816003015560808201518160040160006101000a81548160ff021916908315150217905550905050612226333084611ba4565b817fdebdb32cb5230ab727c9c361b16fdb2015df225c10e6a3e7f60ecd5dc5be4516333084600060405161225d9493929190613da9565b60405180910390a25050565b600081600001549050600081116122b5576040517f08c379a00000000000000000000000000000000000000000000000000000000081526004016122ac90613e3a565b60405180910390fd5b6001810382600001819055505050565b8173ffffffffffffffffffffffffffffffffffffffff168373ffffffffffffffffffffffffffffffffffffffff1603612333576040517f08c379a000000000000000000000000000000000000000000000000000000000815260040161232a90613ea6565b60405180910390fd5b80600560008573ffffffffffffffffffffffffffffffffffffffff1673ffffffffffffffffffffffffffffffffffffffff16815260200190815260200160002060008473ffffffffffffffffffffffffffffffffffffffff1673ffffffffffffffffffffffffffffffffffffffff16815260200190815260200160002060006101000a81548160ff0219169083151502179055508173ffffffffffffffffffffffffffffffffffffffff168373ffffffffffffffffffffffffffffffffffffffff167f17307eab39ab6107e8899845ad3d59bd9653f200f220920489ca2b5937696c3183604051612424919061299d565b60405180910390a3505050565b61243c848484611ba4565b61244884848484612582565b612487576040517f08c379a000000000000000000000000000000000000000000000000000000000815260040161247e90613f38565b60405180910390fd5b50505050565b606060405180602001604052806000815250905090565b60606124af826119f5565b60006124b961248d565b905060008151116124d95760405180602001604052806000815250612504565b806124e384612709565b6040516020016124f49291906137fe565b6040516020818303038152906040525b915050919050565b60008073ffffffffffffffffffffffffffffffffffffffff166002600084815260200190815260200160002060009054906101000a900473ffffffffffffffffffffffffffffffffffffffff1673ffffffffffffffffffffffffffffffffffffffff1614159050919050565b505050565b505050565b60006125a38473ffffffffffffffffffffffffffffffffffffffff16612869565b156126fc578373ffffffffffffffffffffffffffffffffffffffff1663150b7a026125cc611a40565b8786866040518563ffffffff1660e01b81526004016125ee9493929190613fad565b6020604051808303816000875af192505050801561262a57506040513d601f19601f82011682018060405250810190612627919061400e565b60015b6126ac573d806000811461265a576040519150601f19603f3d011682016040523d82523d6000602084013e61265f565b606091505b5060008151036126a4576040517f08c379a000000000000000000000000000000000000000000000000000000000815260040161269b90613f38565b60405180910390fd5b805181602001fd5b63150b7a0260e01b7bffffffffffffffffffffffffffffffffffffffffffffffffffffffff1916817bffffffffffffffffffffffffffffffffffffffffffffffffffffffff191614915050612701565b600190505b949350505050565b606060008203612750576040518060400160405280600181526020017f30000000000000000000000000000000000000000000000000000000000000008152509050612864565b600082905060005b6000821461278257808061276b906133a2565b915050600a8261277b919061406a565b9150612758565b60008167ffffffffffffffff81111561279e5761279d612dc1565b5b6040519080825280601f01601f1916602001820160405280156127d05781602001600182028036833780820191505090505b5090505b6000851461285d576001826127e9919061330b565b9150600a856127f8919061409b565b6030612804919061333f565b60f81b81838151811061281a57612819613373565b5b60200101907effffffffffffffffffffffffffffffffffffffffffffffffffffffffffffff1916908160001a905350600a85612856919061406a565b94506127d4565b8093505050505b919050565b6000808273ffffffffffffffffffffffffffffffffffffffff163b119050919050565b6040518060a0016040528060008152602001600073ffffffffffffffffffffffffffffffffffffffff168152602001600073ffffffffffffffffffffffffffffffffffffffff168152602001600081526020016000151581525090565b6000604051905090565b600080fd5b600080fd5b60007fffffffff0000000000000000000000000000000000000000000000000000000082169050919050565b612932816128fd565b811461293d57600080fd5b50565b60008135905061294f81612929565b92915050565b60006020828403121561296b5761296a6128f3565b5b600061297984828501612940565b91505092915050565b60008115159050919050565b61299781612982565b82525050565b60006020820190506129b2600083018461298e565b92915050565b600081519050919050565b600082825260208201905092915050565b60005b838110156129f25780820151818401526020810190506129d7565b60008484015250505050565b6000601f19601f8301169050919050565b6000612a1a826129b8565b612a2481856129c3565b9350612a348185602086016129d4565b612a3d816129fe565b840191505092915050565b60006020820190508181036000830152612a628184612a0f565b905092915050565b6000819050919050565b612a7d81612a6a565b8114612a8857600080fd5b50565b600081359050612a9a81612a74565b92915050565b600060208284031215612ab657612ab56128f3565b5b6000612ac484828501612a8b565b91505092915050565b600073ffffffffffffffffffffffffffffffffffffffff82169050919050565b6000612af882612acd565b9050919050565b612b0881612aed565b82525050565b6000602082019050612b236000830184612aff565b92915050565b612b3281612aed565b8114612b3d57600080fd5b50565b600081359050612b4f81612b29565b92915050565b60008060408385031215612b6c57612b6b6128f3565b5b6000612b7a85828601612b40565b9250506020612b8b85828601612a8b565b9150509250929050565b600081519050919050565b600082825260208201905092915050565b6000819050602082019050919050565b612bca81612a6a565b82525050565b6000612bdb82612acd565b9050919050565b612beb81612bd0565b82525050565b612bfa81612982565b82525050565b60a082016000820151612c166000850182612bc1565b506020820151612c296020850182612be2565b506040820151612c3c6040850182612be2565b506060820151612c4f6060850182612bc1565b506080820151612c626080850182612bf1565b50505050565b6000612c748383612c00565b60a08301905092915050565b6000602082019050919050565b6000612c9882612b95565b612ca28185612ba0565b9350612cad83612bb1565b8060005b83811015612cde578151612cc58882612c68565b9750612cd083612c80565b925050600181019050612cb1565b5085935050505092915050565b60006020820190508181036000830152612d058184612c8d565b905092915050565b612d1681612a6a565b82525050565b6000602082019050612d316000830184612d0d565b92915050565b600080600060608486031215612d5057612d4f6128f3565b5b6000612d5e86828701612b40565b9350506020612d6f86828701612b40565b9250506040612d8086828701612a8b565b9150509250925092565b600060208284031215612da057612d9f6128f3565b5b6000612dae84828501612b40565b91505092915050565b600080fd5b600080fd5b7f4e487b7100000000000000000000000000000000000000000000000000000000600052604160045260246000fd5b612df9826129fe565b810181811067ffffffffffffffff82111715612e1857612e17612dc1565b5b80604052505050565b6000612e2b6128e9565b9050612e378282612df0565b919050565b600067ffffffffffffffff821115612e5757612e56612dc1565b5b612e60826129fe565b9050602081019050919050565b82818337600083830152505050565b6000612e8f612e8a84612e3c565b612e21565b905082815260208101848484011115612eab57612eaa612dbc565b5b612eb6848285612e6d565b509392505050565b600082601f830112612ed357612ed2612db7565b5b8135612ee3848260208601612e7c565b91505092915050565b60008060408385031215612f0357612f026128f3565b5b600083013567ffffffffffffffff811115612f2157612f206128f8565b5b612f2d85828601612ebe565b9250506020612f3e85828601612a8b565b9150509250929050565b60008060408385031215612f5f57612f5e6128f3565b5b6000612f6d85828601612a8b565b9250506020612f7e85828601612a8b565b9150509250929050565b612f9181612982565b8114612f9c57600080fd5b50565b600081359050612fae81612f88565b92915050565b60008060408385031215612fcb57612fca6128f3565b5b6000612fd985828601612b40565b9250506020612fea85828601612f9f565b9150509250929050565b600067ffffffffffffffff82111561300f5761300e612dc1565b5b613018826129fe565b9050602081019050919050565b600061303861303384612ff4565b612e21565b90508281526020810184848401111561305457613053612dbc565b5b61305f848285612e6d565b509392505050565b600082601f83011261307c5761307b612db7565b5b813561308c848260208601613025565b91505092915050565b600080600080608085870312156130af576130ae6128f3565b5b60006130bd87828801612b40565b94505060206130ce87828801612b40565b93505060406130df87828801612a8b565b925050606085013567ffffffffffffffff811115613100576130ff6128f8565b5b61310c87828801613067565b91505092959194509250565b6000806040838503121561312f5761312e6128f3565b5b600061313d85828601612b40565b925050602061314e85828601612b40565b9150509250929050565b7f4e487b7100000000000000000000000000000000000000000000000000000000600052602260045260246000fd5b6000600282049050600182168061319f57607f821691505b6020821081036131b2576131b1613158565b5b50919050565b7f4552433732313a20617070726f76616c20746f2063757272656e74206f776e6560008201527f7200000000000000000000000000000000000000000000000000000000000000602082015250565b60006132146021836129c3565b915061321f826131b8565b604082019050919050565b6000602082019050818103600083015261324381613207565b9050919050565b7f4552433732313a20617070726f76652063616c6c6572206973206e6f7420746f60008201527f6b656e206f776e6572206e6f7220617070726f76656420666f7220616c6c0000602082015250565b60006132a6603e836129c3565b91506132b18261324a565b604082019050919050565b600060208201905081810360008301526132d581613299565b9050919050565b7f4e487b7100000000000000000000000000000000000000000000000000000000600052601160045260246000fd5b600061331682612a6a565b915061332183612a6a565b9250828203905081811115613339576133386132dc565b5b92915050565b600061334a82612a6a565b915061335583612a6a565b925082820190508082111561336d5761336c6132dc565b5b92915050565b7f4e487b7100000000000000000000000000000000000000000000000000000000600052603260045260246000fd5b60006133ad82612a6a565b91507fffffffffffffffffffffffffffffffffffffffffffffffffffffffffffffffff82036133df576133de6132dc565b5b600182019050919050565b7f4552433732313a2063616c6c6572206973206e6f7420746f6b656e206f776e6560008201527f72206e6f7220617070726f766564000000000000000000000000000000000000602082015250565b6000613446602e836129c3565b9150613451826133ea565b604082019050919050565b6000602082019050818103600083015261347581613439565b9050919050565b7f4552433732313a20696e76616c696420746f6b656e2049440000000000000000600082015250565b60006134b26018836129c3565b91506134bd8261347c565b602082019050919050565b600060208201905081810360008301526134e1816134a5565b9050919050565b7f4552433732313a2061646472657373207a65726f206973206e6f74206120766160008201527f6c6964206f776e65720000000000000000000000000000000000000000000000602082015250565b60006135446029836129c3565b915061354f826134e8565b604082019050919050565b6000602082019050818103600083015261357381613537565b9050919050565b7f4f6e792074686973206974656d206f776e65722063616e20706572666f726d2060008201527f7468697320616374696f6e000000000000000000000000000000000000000000602082015250565b60006135d6602b836129c3565b91506135e18261357a565b604082019050919050565b60006020820190508181036000830152613605816135c9565b9050919050565b7f5072696365206d75737420657175616c20746f206c697374696e67207072696360008201527f6500000000000000000000000000000000000000000000000000000000000000602082015250565b60006136686021836129c3565b91506136738261360c565b604082019050919050565b600060208201905081810360008301526136978161365b565b9050919050565b7f4f6e6c7920746865206f776e6572206f6620746865206d61726b6574706c616360008201527f652063616e207570646174652074686520707269636500000000000000000000602082015250565b60006136fa6036836129c3565b91506137058261369e565b604082019050919050565b60006020820190508181036000830152613729816136ed565b9050919050565b7f506c65617365207375626d6974207468652061736b696e67207072696365206960008201527f6e6f7264657220746f20636f6d706c6574652074686520707572636861736500602082015250565b600061378c603f836129c3565b915061379782613730565b604082019050919050565b600060208201905081810360008301526137bb8161377f565b9050919050565b600081905092915050565b60006137d8826129b8565b6137e281856137c2565b93506137f28185602086016129d4565b80840191505092915050565b600061380a82856137cd565b915061381682846137cd565b91508190509392505050565b7f4552433732313a207472616e736665722066726f6d20696e636f72726563742060008201527f6f776e6572000000000000000000000000000000000000000000000000000000602082015250565b600061387e6025836129c3565b915061388982613822565b604082019050919050565b600060208201905081810360008301526138ad81613871565b9050919050565b7f4552433732313a207472616e7366657220746f20746865207a65726f2061646460008201527f7265737300000000000000000000000000000000000000000000000000000000602082015250565b60006139106024836129c3565b915061391b826138b4565b604082019050919050565b6000602082019050818103600083015261393f81613903565b9050919050565b7f4552433732313a206d696e7420746f20746865207a65726f2061646472657373600082015250565b600061397c6020836129c3565b915061398782613946565b602082019050919050565b600060208201905081810360008301526139ab8161396f565b9050919050565b7f4552433732313a20746f6b656e20616c7265616479206d696e74656400000000600082015250565b60006139e8601c836129c3565b91506139f3826139b2565b602082019050919050565b60006020820190508181036000830152613a17816139db565b9050919050565b7f45524337323155524953746f726167653a2055524920736574206f66206e6f6e60008201527f6578697374656e7420746f6b656e000000000000000000000000000000000000602082015250565b6000613a7a602e836129c3565b9150613a8582613a1e565b604082019050919050565b60006020820190508181036000830152613aa981613a6d565b9050919050565b60008190508160005260206000209050919050565b60006020601f8301049050919050565b600082821b905092915050565b600060088302613b127fffffffffffffffffffffffffffffffffffffffffffffffffffffffffffffffff82613ad5565b613b1c8683613ad5565b95508019841693508086168417925050509392505050565b6000819050919050565b6000613b59613b54613b4f84612a6a565b613b34565b612a6a565b9050919050565b6000819050919050565b613b7383613b3e565b613b87613b7f82613b60565b848454613ae2565b825550505050565b600090565b613b9c613b8f565b613ba7818484613b6a565b505050565b5b81811015613bcb57613bc0600082613b94565b600181019050613bad565b5050565b601f821115613c1057613be181613ab0565b613bea84613ac5565b81016020851015613bf9578190505b613c0d613c0585613ac5565b830182613bac565b50505b505050565b600082821c905092915050565b6000613c3360001984600802613c15565b1980831691505092915050565b6000613c4c8383613c22565b9150826002028217905092915050565b613c65826129b8565b67ffffffffffffffff811115613c7e57613c7d612dc1565b5b613c888254613187565b613c93828285613bcf565b600060209050601f831160018114613cc65760008415613cb4578287015190505b613cbe8582613c40565b865550613d26565b601f198416613cd486613ab0565b60005b82811015613cfc57848901518255600182019150602085019450602081019050613cd7565b86831015613d195784890151613d15601f891682613c22565b8355505b6001600288020188555050505b505050505050565b7f5072696365206d7573742062652061746c656173742031202065746865720000600082015250565b6000613d64601e836129c3565b9150613d6f82613d2e565b602082019050919050565b60006020820190508181036000830152613d9381613d57565b9050919050565b613da381612bd0565b82525050565b6000608082019050613dbe6000830187613d9a565b613dcb6020830186613d9a565b613dd86040830185612d0d565b613de5606083018461298e565b95945050505050565b7f436f756e7465723a2064656372656d656e74206f766572666c6f770000000000600082015250565b6000613e24601b836129c3565b9150613e2f82613dee565b602082019050919050565b60006020820190508181036000830152613e5381613e17565b9050919050565b7f4552433732313a20617070726f766520746f2063616c6c657200000000000000600082015250565b6000613e906019836129c3565b9150613e9b82613e5a565b602082019050919050565b60006020820190508181036000830152613ebf81613e83565b9050919050565b7f4552433732313a207472616e7366657220746f206e6f6e20455243373231526560008201527f63656976657220696d706c656d656e7465720000000000000000000000000000602082015250565b6000613f226032836129c3565b9150613f2d82613ec6565b604082019050919050565b60006020820190508181036000830152613f5181613f15565b9050919050565b600081519050919050565b600082825260208201905092915050565b6000613f7f82613f58565b613f898185613f63565b9350613f998185602086016129d4565b613fa2816129fe565b840191505092915050565b6000608082019050613fc26000830187612aff565b613fcf6020830186612aff565b613fdc6040830185612d0d565b8181036060830152613fee8184613f74565b905095945050505050565b60008151905061400881612929565b92915050565b600060208284031215614024576140236128f3565b5b600061403284828501613ff9565b91505092915050565b7f4e487b7100000000000000000000000000000000000000000000000000000000600052601260045260246000fd5b600061407582612a6a565b915061408083612a6a565b9250826140905761408f61403b565b5b828204905092915050565b60006140a682612a6a565b91506140b183612a6a565b9250826140c1576140c061403b565b5b82820690509291505056fea2646970667358221220e8df2b649e509f4f7bc0a3d90fc87fa6d0651fc9165b01052408f8405060784064736f6c63430008180033",
  "linkReferences": {},
  "deployedLinkReferences": {}
}